:10000300C2A07FF4120075D2A07FF4120075C2A1C2
:100013007FF4120075D2A17FF4120075C2A27FF49F
:10002300120075D2A27FF4120075C2A37FF41200EE
:1000330075D2A37FF4120075C2A47FF4120075D2A7
:10004300A47FF4120075C2A57FF4120075D2A57FB8
:10005300F4120075C2A67FF4120075D2A67FF412C3
:100063000075C2A77FF4120075D2A77FF412007542
:02007300808E7D
:10007500AE071FEE600A7E027DEFDDFEDEFC80F03E
:010085002258
:0300000002008675
:0C008600787FE4F6D8FD758107020003C6
:00000001FF
